:020000040800F2
:1000000000280020AD1100083D1100084311000830
:10001000491100084F1100085511000800000000A8
:100020000000000000000000000000005B1100085C
:100030006711000800000000731100087F1100081C
:10004000F5110008F5110008F5110008F511000878
:10005000F5110008F5110008F5110008F511000868
:10006000F5110008F5110008F5110008F511000858
:10007000F5110008F5110008F5110008F511000848
:10008000F5110008F5110008F5110008F511000838
:10009000F5110008F5110008F5110008F511000828
:1000A000F5110008F5110008F5110008F511000818
:1000B0008D110008F511000800000000F51100087E
:1000C000F51100080000000000000000F511000814
:1000D00000000000F5110008F51100080000000004
:1000E000F5110008F5110008F511000800000000E6
:1000F0000000000000000000000000000000000000
:0C01000000000000000000005FF808F1A3
:10010C0010B5054C237833B9044B13B10448AFF345
:10011C0000800123237010BD0C00002000000000A3
:10012C001828000808B5034B1BB103490348AFF36B
:10013C00008008BD000000001000002018280008F6
:10014C0090B597B00CAF01F051F800F011F900F038
:10015C0097F900F049F9814801F094FF00216420DF
:10016C0000F056FF0121322000F052FF02210A203C
:10017C0000F04EFF18237B623B233B623223FB6172
:10018C0004233B61764B3C460FCB84E80F000023E5
:10019C00BB6100237B61734B1B68012B23D10021B6
:1001AC00642000F035FF20216F4801F023FB102163
:1001BC006D4801F01FFBFB690133FB61FB693B2BB5
:1001CC0004DD0023FB613B6A01333B623B6A3B2B42
:1001DC0004DD00233B627B6A01337B627B6A172B55
:1001EC0001DD00237B623B461A46396A786A00F0CF
:1001FC0089FB5C4B5B68012B40F09980012132201C
:10020C0000F006FFBA693B699A4201DB0023BB612F
:10021C00BB69032B66D801A252F823F039020008FF
:10022C006702000895020008C30200080022402162
:10023C004D4801F0C7FA012280214B4801F0C2FA67
:10024C0001224FF48071484801F0BCFA01224FF4AE
:10025C000071454801F0B6FA45E0012240214248C0
:10026C0001F0B0FA002280213F4801F0ABFA0122E4
:10027C004FF480713C4801F0A5FA01224FF4007153
:10028C00394801F09FFA2EE001224021364801F056
:10029C0099FA01228021344801F094FA00224FF49B
:1002AC008071314801F08EFA01224FF400712E4812
:1002BC0001F088FA17E0012240212B4801F082FA64
:1002CC0001228021284801F07DFA01224FF480712F
:1002DC00254801F077FA00224FF40071224801F012
:1002EC0071FA00E000BFBB699B0028333B4453F814
:1002FC00280C40230A931D4B0993202308931B4B76
:10030C00079310230693194B059308230493174B5B
:10031C00039304230293154B019302230093134B75
:10032C000122124900F00CF9BB690133BB610D4B82
:10033C009B68012B7FF42FAF0221012000F068FE97
:10034C00786900F03DFB7B6901337B617B69072B8E
:10035C007FF721AF00237B611DE700BF2800002041
:10036C0030280008B800002000080140000C0140B3
:10037C0080B590B000AF07F1180328220021184671
:10038C0002F03CFA3B1D00221A605A609A60DA6057
:10039C001A610223BB610123BB621023FB620023A1
:1003AC007B6307F11803184601F03EFA0346002B55
:1003BC0001D000F027FE0F237B600023BB600023DD
:1003CC00FB6000233B6100237B613B1D0021184631
:1003DC0001F0ACFC0346002B01D000F013FE00BF73
:1003EC004037BD4680BD000080B586B000AF07F138
:1003FC00080300221A605A609A60DA603B460022B9
:10040C001A605A601D4B4FF080421A601B4B41F62C
:10041C003F725A60194B00229A60184B0922DA601D
:10042C00164B00221A61154B00229A61134801F0F9
:10043C00D9FD0346002B01D000F0E4FD4FF48053AE
:10044C00BB6007F1080319460C4801F06FFF034627
:10045C00002B01D000F0D6FD00233B6000237B6015
:10046C003B461946054802F03BF90346002B01D0E8
:10047C0000F0C8FD00BF1837BD4680BD2800002025
:10048C0080B586B000AF07F1080300221A605A60ED
:10049C009A60DA60224B9B69214A43F00403936112
:1004AC001F4B9B6903F004037B607B681C4B9B69AF
:1004BC001B4A43F008039361194B9B6903F0080333
:1004CC003B603B6800224FF6FC71164801F07AF94C
:1004DC0000224FF67F71144801F074F94FF6FC734B
:1004EC00BB600123FB6000233B6102237B6107F1AE
:1004FC00080319460B4800F0E9FF4FF67F73BB6009
:10050C000123FB6000233B6102237B6107F108039D
:10051C001946054800F0DAFF00BF1837BD4680BD0C
:10052C000010024000080140000C014080B582B070
:10053C0000AF786000F084FD00BF0837BD4680BD79
:10054C0080B584B000AFF860B9603B601346FB80A7
:10055C00FB68092B00F2D08101A252F823F000BFF6
:10056C0095050008ED050008450600089D060008E5
:10057C00F50600084D070008A5070008FD07000850
:10058C0055080008AD080008FB8800221946B86819
:10059C0001F018F93B8B00221946386801F012F96A
:1005AC003B8C00221946F86901F00CF93B8D0022B6
:1005BC001946786A01F006F93B8E00221946F86A52
:1005CC0001F000F93B8F00221946786B01F0FAF824
:1005DC00B7F8403001221946F86B01F0F3F88CE1C2
:1005EC00FB8801221946B86801F0ECF83B8B00221D
:1005FC001946386801F0E6F83B8C00221946F86978
:10060C0001F0E0F83B8D01221946786A01F0DAF826
:10061C003B8E01221946F86A01F0D4F83B8F012277
:10062C001946786B01F0CEF8B7F840300122194624
:10063C00F86B01F0C7F860E1FB8800221946B86836
:10064C0001F0C0F83B8B00221946386801F0BAF86B
:10065C003B8C01221946F86901F0B4F83B8D00225D
:10066C001946786A01F0AEF83B8E00221946F86AFA
:10067C0001F0A8F83B8F01221946786B01F0A2F823
:10068C00B7F8403000221946F86B01F09BF834E1C2
:10069C00FB8800221946B86801F094F83B8B0022C5
:1006AC001946386801F08EF83B8C00221946F8691F
:1006BC0001F088F83B8D00221946786A01F082F827
:1006CC003B8E01221946F86A01F07CF83B8F01221F
:1006DC001946786B01F076F8B7F8403000221946CD
:1006EC00F86B01F06FF808E1FB8801221946B86835
:1006FC0001F068F83B8B00221946386801F062F86B
:10070C003B8C00221946F86901F05CF83B8D012204
:10071C001946786A01F056F83B8E01221946F86AA0
:10072C0001F050F83B8F00221946786B01F04AF823
:10073C00B7F8403000221946F86B01F043F8DCE0C2
:10074C00FB8800221946B86801F03CF83B8B01226B
:10075C001946386801F036F83B8C00221946F869C6
:10076C0001F030F83B8D00221946786A01F02AF826
:10077C003B8E01221946F86A01F024F83B8F0022C7
:10078C001946786B01F01EF8B7F840300022194674
:10079C00F86B01F017F8B0E0FB8800221946B86836
:1007AC0001F010F83B8B01221946386801F00AF869
:1007BC003B8C00221946F86901F004F83B8D0022AD
:1007CC001946786A00F0FEFF3B8E00221946F86A43
:1007DC0000F0F8FF3B8F00221946786B00F0F2FF17
:1007EC00B7F8403000221946F86B00F0EBFF84E0BC
:1007FC00FB8800221946B86800F0E4FF3B8B00220E
:10080C001946386800F0DEFF3B8C00221946F86967
:10081C0000F0D8FF3B8D01221946786A00F0D2FF18
:10082C003B8E01221946F86A00F0CCFF3B8F012267
:10083C001946786B00F0C6FFB7F840300122194614
:10084C00F86B00F0BFFF58E0FB8800221946B8682F
:10085C0000F0B8FF3B8B00221946386800F0B2FF5D
:10086C003B8C00221946F86900F0ACFF3B8D00224E
:10087C001946786A00F0A6FF3B8E00221946F86AEA
:10088C0000F0A0FF3B8F00221946786B00F09AFF16
:10089C00B7F8403000221946F86B00F093FF2CE0BB
:1008AC00FB8800221946B86800F08CFF3B8B0022B5
:1008BC001946386800F086FF3B8C00221946F8690F
:1008CC0000F080FF3B8D00221946786A00F07AFF19
:1008DC003B8E01221946F86A00F074FF3B8F002210
:1008EC001946786B00F06EFFB7F8403000221946BD
:1008FC00F86B00F067FF00E000BF00BF1037BD468B
:10090C0080BD00BF80B485B000AFF860B9607A607C
:10091C00FB68002B0ADBFB68092B07DC7B680022D9
:10092C001A607B680433FA681A6017E0FB68234A84
:10093C0082FB03129210DB17D21A7B681A607B6859
:10094C00181DF9681D4B83FB01239A10CB17D21A83
:10095C0013469B0013445B00CA1A0260BB68002B51
:10096C000BDBBB68092B08DC7B68083300221A60A0
:10097C007B680C33BA681A601BE07B6803F10802D1
:10098C00BB680E4981FB03018910DB17CB1A13607E
:10099C007B6803F10C00B968084B83FB01239A10A8
:1009AC00CB17D21A13469B0013445B00CA1A026081
:1009BC0000BF00BF1437BD4680BC704767666666D3
:1009CC0080B582B000AF78607B68072B00F2108393
:1009DC0001A252F823F000BF050A0008C30A000860
:1009EC00810B00083F0C0008050D0008C30D000822
:1009FC00810E00083F0F000801220421BC4800F0C2
:100A0C00E1FE01220821BA4800F0DCFE01224FF47D
:100A1C008061B74800F0D6FE01224FF40061B44863
:100A2C0000F0D0FE01224FF48051B14800F0CAFE14
:100A3C0001224FF40051AE4800F0C4FE01224FF4E5
:100A4C008041AB4800F0BEFE01224FF40041A848A3
:100A5C0000F0B8FE00224FF48071A64800F0B2FE00
:100A6C0000224FF40071A34800F0ACFE00224FF4BA
:100A7C008061A04800F0A6FE00224FF400619D4862
:100A8C0000F0A0FE00224FF480519A4800F09AFE2C
:100A9C0000224FF40051974800F094FE00224FF4CE
:100AAC008041944800F08EFE00224FF400419148A2
:100ABC0000F088FE9DE2012204218D4800F082FEA8
:100ACC00002208218A4800F07DFE01224FF480614B
:100ADC00874800F077FE01224FF40061844800F053
:100AEC0071FE01224FF48051814800F06BFE01220F
:100AFC004FF400517E4800F065FE01224FF4804116
:100B0C007B4800F05FFE01224FF40041784800F072
:100B1C0059FE00224FF48071764800F053FE0022FB
:100B2C004FF40071734800F04DFE00224FF48061C9
:100B3C00704800F047FE00224FF400616D4800F051
:100B4C0041FE00224FF480516A4800F03BFE002227
:100B5C004FF40051674800F035FE00224FF48041FD
:100B6C00644800F02FFE00224FF40041614800F071
:100B7C0029FE3EE2012204215D4800F023FE012201
:100B8C0008215B4800F01EFE00224FF4806158489B
:100B9C0000F018FE01224FF40061554800F012FEDF
:100BAC0001224FF48051524800F00CFE01224FF408
:100BBC0000514F4800F006FE01224FF480414C4892
:100BCC0000F000FE01224FF40041494800F0FAFD0C
:100BDC0000224FF48071474800F0F4FD01224FF4DD
:100BEC000071444800F0EEFD01224FF48061414851
:100BFC0000F0E8FD01224FF400613E4800F0E2FDF8
:100C0C0000224FF480513B4800F0DCFD01224FF4F0
:100C1C000051384800F0D6FD01224FF48041354890
:100C2C0000F0D0FD01224FF40041324800F0CAFD23
:100C3C00DFE1012204212E4800F0C4FD012208212D
:100C4C002B4800F0BFFD01224FF48061284800F0D2
:100C5C00B9FD00224FF40061254800F0B3FD0122DC
:100C6C004FF48051224800F0ADFD01224FF40051A9
:100C7C001F4800F0A7FD01224FF480411C4800F0F2
:100C8C00A1FD01224FF40041194800F09BFD002208
:100C9C004FF48071174800F095FD01224FF400715C
:100CAC00144800F08FFD01224FF48061114800F0D0
:100CBC0089FD01224FF400610E4800F083FD0022F3
:100CCC004FF480510B4800F07DFD01224FF4005190
:100CDC00084800F077FD01224FF48041054800F0F0
:100CEC0071FD01224FF40041024800F06BFD80E1E0
:100CFC0000080140000C014001220421BF4800F013
:100D0C0061FD01220821BD4800F05CFD01224FF479
:100D1C008061BA4800F056FD01224FF40061B748DB
:100D2C0000F050FD00224FF48051B44800F04AFD11
:100D3C0001224FF40051B14800F044FD01224FF460
:100D4C008041AE4800F03EFD01224FF40041AB481B
:100D5C0000F038FD00224FF48071A94800F032FDFC
:100D6C0001224FF40071A64800F02CFD01224FF433
:100D7C008061A34800F026FD01224FF40061A048D9
:100D8C0000F020FD00224FF480519D4800F01AFD28
:100D9C0001224FF400519A4800F014FD01224FF447
:100DAC008041974800F00EFD01224FF40041944819
:100DBC0000F008FD1DE101220421904800F002FD25
:100DCC00012208218D4800F0FDFC01224FF48061C6
:100DDC008A4800F0F7FC01224FF40061874800F0CC
:100DEC00F1FC01224FF48051844800F0EBFC00220E
:100DFC004FF40051814800F0E5FC01224FF4804192
:100E0C007E4800F0DFFC01224FF400417B4800F0EB
:100E1C00D9FC00224FF48071794800F0D3FC0122F8
:100E2C004FF40071764800F0CDFC01224FF4806144
:100E3C00734800F0C7FC01224FF40061704800F0C9
:100E4C00C1FC00224FF480516D4800F0BBFC012224
:100E5C004FF400516A4800F0B5FC01224FF4804178
:100E6C00674800F0AFFC01224FF40041644800F0E9
:100E7C00A9FCBEE001220421604800F0A3FC012281
:100E8C0008215E4800F09EFC01224FF480615B4813
:100E9C0000F098FC01224FF40061584800F092FCDD
:100EAC0001224FF48051554800F08CFC01224FF484
:100EBC000051524800F086FC00224FF480414F480C
:100ECC0000F080FC01224FF400414C4800F07AFC09
:100EDC0000224FF480714A4800F074FC00224FF459
:100EEC000071474800F06EFC00224FF480614448CA
:100EFC0000F068FC00224FF40061414800F062FCF5
:100F0C0000224FF480513E4800F05CFC00224FF46C
:100F1C0000513B4800F056FC00224FF48041384809
:100F2C0000F050FC00224FF40041354800F04AFC20
:100F3C005FE001220421314800F044FC0122082129
:100F4C002E4800F03FFC01224FF480612B4800F04A
:100F5C0039FC01224FF40061284800F033FC0122D7
:100F6C004FF48051254800F02DFC01224FF4005124
:100F7C00224800F027FC01224FF480411F4800F06A
:100F8C0021FC01224FF400411C4800F01BFC002204
:100F9C004FF480711A4800F015FC00224FF40071D8
:100FAC00174800F00FFC00224FF48061144800F049
:100FBC0009FC00224FF40061114800F003FC0022F0
:100FCC004FF480510E4800F0FDFB00224FF400510D
:100FDC000B4800F0F7FB00224FF48041084800F06A
:100FEC00F1FB00224FF40041054800F0EBFB00E060
:100FFC0000BF00BF0837BD4680BD00BF00080140E0
:10100C00000C014080B400AF72B600BFFEE70000D8
:10101C0080B483B000AF7860396007493B687A6868
:10102C0041F82320054A3B68002142F8231000BFF9
:10103C000C37BD4680BC704770000020B800002003
:10104C0080B483B000AF00237B601CE0134A7B6844
:10105C0052F82330002B13DD104A7B6852F82330F2
:10106C005A1E0E497B6841F823200C4A7B6852F8C3
:10107C002330002B04DC0A4A7B68012142F8231040
:10108C007B6801337B6012227B689342DEDB00BFFE
:10109C0000BF0C37BD4680BC704700BF70000020FD
:1010AC00B800002080B483B000AF0E4B9B690D4A92
:1010BC0043F0010393610B4B9B6903F001037B60CD
:1010CC007B68084BDB69074A43F08053D361054BBF
:1010DC00DB6903F080533B603B6800BF0C37BD46B7
:1010EC0080BC70470010024080B584B000AF7860BF
:1010FC007B681B68B3F1804F13D10C4BDB690B4A37
:10110C0043F00103D361094BDB6903F00103FB607E
:10111C00FB68002200211C2000F0A1F91C2000F02B
:10112C00BAF900BF1037BD4680BD00BF00100240A9
:10113C0080B400AFFEE780B400AFFEE780B400AF30
:10114C00FEE780B400AFFEE780B400AFFEE780B4EA
:10115C0000AF00BFBD4680BC704780B400AF00BF7D
:10116C00BD4680BC704780B400AF00BFBD4680BC9C
:10117C00704780B500AF00F07FF800BF80BD000065
:10118C0080B500AF024800F0C9FF00BF80BD00BFB2
:10119C002800002080B400AF00BFBD4680BC704763
:1011AC000C480D490D4A002302E0D458C4500433B6
:1011BC00C4188C42F9D30A4A0A4C002301E013608C
:1011CC000432A242FBD3FFF7E5FF01F0F3FAFEF77E
:1011DC00B7FF7047000000200C0000206C280008AE
:1011EC000C00002004010020FEE7000080B500AFD9
:1011FC00084B1B68074A43F010031360032000F0F0
:10120C0023F90F2000F008F8FFF74CFF00231846D5
:10121C0080BD00BF0020024080B582B000AF786076
:10122C00124B1A68124B1B7819464FF47A73B3FBA6
:10123C00F1F3B2FBF3F3184600F03BF90346002B35
:10124C0001D001230EE07B680F2B0AD800227968AD
:10125C004FF0FF3000F003F9064A7B68136000235F
:10126C0000E0012318460837BD4680BD0000002071
:10127C00080000200400002080B400AF054B1B7850
:10128C001A46054B1B681344034A136000BFBD4646
:10129C0080BC7047080000200001002080B400AF23
:1012AC00024B1B681846BD4680BC704700010020ED
:1012BC0080B485B000AF78607B6803F00703FB60F7
:1012CC000C4BDB68BB60BA684FF6FF031340BB6086
:1012DC00FB681A02BB68134343F0BF6343F400334B
:1012EC00BB60044ABB68D36000BF1437BD4680BCEA
:1012FC00704700BF00ED00E080B400AF044BDB682A
:10130C001B0A03F007031846BD4680BC704700BF9C
:10131C0000ED00E080B483B000AF0346FB7197F999
:10132C000730002B0BDBFB7903F01F02064997F902
:10133C0007305B09012000FA02F241F8232000BFBC
:10134C000C37BD4680BC704700E100E080B483B030
:10135C0000AF03463960FB7197F90730002B0ADBAD
:10136C003B68DAB20C4997F907301201D2B20B4440
:10137C0083F800230AE03B68DAB20849FB7903F0F2
:10138C000F03043B1201D2B20B441A7600BF0C3788
:10139C00BD4680BC704700BF00E100E000ED00E0FE
:1013AC0080B489B000AFF860B9607A60FB6803F074
:1013BC000703FB61FB69C3F10703042B28BF04235C
:1013CC00BB61FB690433062B02D9FB69033B00E0CC
:1013DC0000237B614FF0FF32BB6902FA03F3DA435F
:1013EC00BB681A407B699A404FF0FF317B6901FA68
:1013FC0003F3D9437B680B40134318462437BD468F
:10140C0080BC704780B582B000AF78607B68013BD0
:10141C00B3F1807F01D301230FE00A4A7B68013BC3
:10142C0053600F214FF0FF30FFF790FF054B002268
:10143C009A60044B07221A60002318460837BD46F1
:10144C0080BD00BF10E000E080B582B000AF7860D6
:10145C007868FFF72DFF00BF0837BD4680BD80B50B
:10146C0086B000AF0346B9607A60FB7300237B61E2
:10147C00FFF742FF78617A68B9687869FFF790FFE7
:10148C00024697F90F3011461846FFF75FFF00BF71
:10149C001837BD4680BD80B582B000AF0346FB71E6
:1014AC0097F907301846FFF735FF00BF0837BD46E0
:1014BC0080BD80B582B000AF78607868FFF7A2FF7E
:1014CC00034618460837BD4680BD000080B48BB07B
:1014DC0000AF7860396000237B6200233B6261E1DE
:1014EC0001227B6A02FA03F3FB613B681B68FA6911
:1014FC001340BB61BA69FB699A4240F050813B686A
:10150C005B68974A93425ED0954A934275D8954A48
:10151C00934258D0934A93426FD8934A934252D0F5
:10152C00914A934269D8914A93424CD08F4A934244
:10153C0063D88F4A934246D08D4A93425DD8122B82
:10154C002AD8122B59D801A252F823F0D31500082F
:10155C00AD150008BF150008011600080716000895
:10156C0007160008071600080716000807160008DB
:10157C0007160008071600080716000807160008CB
:10158C0007160008071600080716000807160008BB
:10159C00B5150008C9150008764A934213D02CE003
:1015AC003B68DB683B6229E03B68DB6804333B62E9
:1015BC0024E03B68DB6808333B621FE03B68DB6878
:1015CC000C333B621AE03B689B68002B02D104236E
:1015DC003B6213E03B689B68012B05D108233B62FF
:1015EC007B68FA691A6109E008233B627B68FA6937
:1015FC005A6103E000233B6200E000BFBB69FF2B94
:10160C0001D87B6801E07B6804337B61BB69FF2BED
:10161C0002D87B6A9B0002E07B6A083B9B003B6123
:10162C007B691A680F213B6901FA03F3DB431A400B
:10163C00396A3B6901FA03F31A437B691A603B6808
:10164C005B6803F08053002B00F0A9804A4B9B6928
:10165C00494A43F001039361474B9B6903F0010333
:10166C00BB60BB68454A7B6A9B08023352F8233047
:10167C00FB607B6A03F003039B000F2202FA03F367
:10168C00DB43FA681340FB607B683D4A93420DD004
:10169C007B683C4A934207D07B683B4A934201D11A
:1016AC00022304E0032302E0012300E000237A6A12
:1016BC0002F0030292009340FA681343FB602F4937
:1016CC007B6A9B080233FA6841F823203B685B680D
:1016DC0003F48013002B06D02C4B9A682B49BB6962
:1016EC0013438B6006E0294B9A68BB69DB4327499F
:1016FC0013408B603B685B6803F40013002B06D02F
:10170C00224BDA682149BB691343CB6006E01F4BBF
:10171C00DA68BB69DB431D491340CB603B685B68EF
:10172C0003F40033002B06D0184B5A681749BB69D9
:10173C0013434B6006E0154B5A68BB69DB431349F6
:10174C0013404B603B685B6803F48033002B1FD065
:10175C000E4B1A680D49BB6913430B601FE000BFA9
:10176C000000321000003110000022100000211087
:10177C000000121000001110001002400000014087
:10178C0000080140000C0140001001400004014021
:10179C000B4B1A68BB69DB43094913400B607B6A2E
:1017AC0001337B623B681A687B6A22FA03F3002BD5
:1017BC007FF496AE00BF00BF2C37BD4680BC70478F
:1017CC000004014080B483B000AF78600B467B808E
:1017DC0013467B707B78002B03D07A887B681A6168
:1017EC0003E07B881A047B681A6100BF0C37BD4686
:1017FC0080BC704780B485B000AF78600B467B80AE
:10180C007B68DB68FB607A88FB6813401A04FB6812
:10181C00D9437B880B401A437B681A6100BF14378D
:10182C00BD4680BC7047000080B586B000AF7860C4
:10183C007B68002B01D1012372E27B681B6803F0EB
:10184C000103002B00F08780924B5B6803F00C03C4
:10185C00042B0CD08F4B5B6803F00C03082B12D1BC
:10186C008C4B5B6803F48033B3F5803F0BD1894B11
:10187C001B6803F40033002B6CD07B685B68002B77
:10188C0068D101234CE27B685B68B3F5803F06D1DD
:10189C00804B1B687F4A43F4803313602EE07B68D7
:1018AC005B68002B0CD17B4B1B687A4A23F480338A
:1018BC001360784B1B68774A23F4802313601DE078
:1018CC007B685B68B3F5A02F0CD1724B1B68714A17
:1018DC0043F4802313606F4B1B686E4A43F48033D0
:1018EC0013600BE06B4B1B686A4A23F48033136064
:1018FC00684B1B68674A23F4802313607B685B6822
:10190C00002B13D0FFF7CAFC386108E0FFF7C6FCC8
:10191C0002463B69D31A642B01D9032300E25D4BC9
:10192C001B6803F40033002BF0D014E0FFF7B6FC77
:10193C00386108E0FFF7B2FC02463B69D31A642B0E
:10194C0001D90323ECE1534B1B6803F40033002B48
:10195C00F0D100E000BF7B681B6803F00203002B92
:10196C0063D04C4B5B6803F00C03002B0BD0494B42
:10197C005B6803F00C03082B1CD1464B5B6803F42B
:10198C008033002B16D1434B1B6803F00203002B52
:10199C0005D07B681B69012B01D00123C0E13D4BB5
:1019AC001B6823F0F8027B685B69DB003949134341
:1019BC000B603AE07B681B69002B20D0364B012270
:1019CC001A60FFF76BFC386108E0FFF767FC024612
:1019DC003B69D31A022B01D90323A1E12D4B1B68C0
:1019EC0003F00203002BF0D02A4B1B6823F0F80203
:1019FC007B685B69DB00274913430B6015E0264BC2
:101A0C0000221A60FFF74AFC386108E0FFF746FC39
:101A1C0002463B69D31A022B01D9032380E11D4BEB
:101A2C001B6803F00203002BF0D17B681B6803F0EA
:101A3C000803002B3AD07B689B69002B19D0174BFD
:101A4C0001221A60FFF72AFC386108E0FFF726FC38
:101A5C0002463B69D31A022B01D9032360E10D4BDB
:101A6C005B6A03F00203002BF0D0012000F09CFA1B
:101A7C001CE00A4B00221A60FFF710FC38610FE0E3
:101A8C00FFF70CFC02463B69D31A022B08D903233F
:101A9C0046E100BF00100240000042428004424276
:101AAC00924B5B6A03F00203002BE9D17B681B6845
:101ABC0003F00403002B00F0A6800023FB758B4B76
:101ACC00DB6903F08053002B0DD1884BDB69874A0F
:101ADC0043F08053D361854BDB6903F08053BB60CB
:101AEC00BB680123FB75824B1B6803F48073002BCE
:101AFC0018D17F4B1B687E4A43F480731360FFF749
:101B0C00CDFB386108E0FFF7C9FB02463B69D31AED
:101B1C00642B01D9032303E1754B1B6803F4807319
:101B2C00002BF0D07B68DB68012B06D16F4B1B6A56
:101B3C006E4A43F0010313622DE07B68DB68002BD7
:101B4C000CD16A4B1B6A694A23F001031362674B81
:101B5C001B6A664A23F0040313621CE07B68DB6893
:101B6C00052B0CD1614B1B6A604A43F004031362D2
:101B7C005E4B1B6A5D4A43F0010313620BE05B4B47
:101B8C001B6A5A4A23F001031362584B1B6A574ACB
:101B9C0023F0040313627B68DB68002B15D0FFF77E
:101BAC007DFB38610AE0FFF779FB02463B69D31AEB
:101BBC0041F28832934201D90323B1E04B4B1B6AAB
:101BCC0003F00203002BEED014E0FFF767FB386143
:101BDC000AE0FFF763FB02463B69D31A41F28832F5
:101BEC00934201D903239BE0404B1B6A03F0020391
:101BFC00002BEED1FB7D012B05D13C4BDB693B4A25
:101C0C0023F08053D3617B68DB69002B00F0878065
:101C1C00364B5B6803F00C03082B61D07B68DB69E7
:101C2C00022B46D1334B00221A60FFF737FB386189
:101C3C0008E0FFF733FB02463B69D31A022B01D9AC
:101C4C0003236DE0294B1B6803F00073002BF0D1CC
:101C5C007B681B6AB3F5803F08D1244B5B6823F487
:101C6C0000327B689B68214913434B601F4B5B68B8
:101C7C0023F474127B68196A7B685B6A0B431B49FB
:101C8C0013434B601B4B01221A60FFF707FB3861B3
:101C9C0008E0FFF703FB02463B69D31A022B01D97C
:101CAC0003233DE0114B1B6803F00073002BF0D0B5
:101CBC0035E0104B00221A60FFF7F0FA386108E0AB
:101CCC00FFF7ECFA02463B69D31A022B01D9032326
:101CDC0026E0064B1B6803F00073002BF0D11EE0CE
:101CEC007B68DB69012B07D1012319E0001002404E
:101CFC0000700040600042420B4B5B68FB60FB686D
:101D0C0003F480327B681B6A9A4206D1FB6803F4A9
:101D1C0070127B685B6A9A4201D0012300E00023B9
:101D2C0018461837BD4680BD0010024080B584B0FF
:101D3C0000AF786039607B68002B01D10123D0E0C3
:101D4C006A4B1B6803F007033A689A4210D9674B39
:101D5C001B6823F0070265493B6813430B60634B18
:101D6C001B6803F007033A689A4201D00123B8E0DC
:101D7C007B681B6803F00203002B20D07B681B6878
:101D8C0003F00403002B05D0594B5B68584A43F40D
:101D9C00E06353607B681B6803F00803002B05D0DD
:101DAC00534B5B68524A43F460535360504B5B682F
:101DBC0023F0F0027B689B684D4913434B607B68B2
:101DCC001B6803F00103002B40D07B685B68012B80
:101DDC0007D1474B1B6803F40033002B15D10123AB
:101DEC007FE07B685B68022B07D1414B1B6803F0DB
:101DFC000073002B09D1012373E03D4B1B6803F0EA
:101E0C000203002B01D101236BE0394B5B6823F0FB
:101E1C0003027B685B68364913434B60FFF73EFA5D
:101E2C00F8600AE0FFF73AFA0246FB68D31A41F26F
:101E3C008832934201D9032353E02D4B5B6803F0A6
:101E4C000C027B685B689B009A42EBD1274B1B68AA
:101E5C0003F007033A689A4210D2244B1B6823F014
:101E6C00070222493B6813430B60204B1B6803F0AD
:101E7C0007033A689A4201D0012332E07B681B6861
:101E8C0003F00403002B08D0194B5B6823F4E062C9
:101E9C007B68DB68164913434B607B681B6803F057
:101EAC000803002B09D0124B5B6823F460527B684B
:101EBC001B69DB000E4913434B6000F021F802460E
:101ECC000B4B5B681B0903F00F030A49CB5C22FA2E
:101EDC0003F3094A1360094B1B681846FFF79CF97A
:101EEC00002318461037BD4680BD00BF00200240BD
:101EFC0000100240402800080000002004000020D0
:101F0C0080B487B000AF0023FB600023BB600023CC
:101F1C007B6100237B6000233B611E4B5B68FB6095
:101F2C00FB6803F00C03042B02D0082B03D027E032
:101F3C00194B3B6127E0FB689B0C03F00F03174A1E
:101F4C00D35C7B60FB6803F48033002B10D0114B07
:101F5C005B685B0C03F00103114AD35CBB607B68CC
:101F6C000D4A03FB02F2BB68B2FBF3F37B6104E0A6
:101F7C007B680C4A02FB03F37B617B693B6102E0EB
:101F8C00054B3B6100BF3B6918461C37BD4680BC06
:101F9C00704700BF0010024000127A005028000861
:101FAC006028000800093D0080B485B000AF78605F
:101FBC000A4B1B680A4AA2FB03235B0A7A6802FBE2
:101FCC0003F3FB6000BFFB685A1EFA60002BF9D1CB
:101FDC0000BF00BF1437BD4680BC70470000002016
:101FEC00D34D621080B582B000AF78607B68002B57
:101FFC0001D1012341E07B6893F83D30DBB2002B2B
:10200C0006D17B68002283F83C207868FFF76CF8D7
:10201C007B68022283F83D207B681A687B68043356
:10202C001946104600F06EFA7B68012283F84620B0
:10203C007B68012283F83E207B68012283F83F20D5
:10204C007B68012283F840207B68012283F84120C1
:10205C007B68012283F842207B68012283F84320AD
:10206C007B68012283F844207B68012283F8452099
:10207C007B68012283F83D20002318460837BD46B3
:10208C0080BD000080B485B000AF78607B6893F8A9
:10209C003D30DBB2012B01D0012335E07B680222FD
:1020AC0083F83D207B681B68DA687B681B6842F00C
:1020BC000102DA607B681B68164A934209D07B6880
:1020CC001B68B3F1804F04D07B681B68124A9342A3
:1020DC0011D17B681B689B6803F00703FB60FB68EE
:1020EC00062B10D07B681B681A687B681B6842F053
:1020FC0001021A6007E07B681B681A687B681B6822
:10210C0042F001021A60002318461437BD4680BC09
:10211C00704700BF002C01400004004080B582B025
:10212C0000AF78607B681B681B6903F00203022B0D
:10213C0022D17B681B68DB6803F00203022B1BD1E6
:10214C007B681B686FF002021A617B6801221A77A8
:10215C007B681B689B6903F00303002B03D0786832
:10216C0000F0B4F905E0786800F0A7F9786800F0A1
:10217C00B6F97B6800221A777B681B681B6903F031
:10218C000403042B22D17B681B68DB6803F0040377
:10219C00042B1BD17B681B686FF004021A617B68EF
:1021AC0002221A777B681B689B6903F44073002B2F
:1021BC0003D0786800F08AF905E0786800F07DF9C2
:1021CC00786800F08CF97B6800221A777B681B68B2
:1021DC001B6903F00803082B22D17B681B68DB68A2
:1021EC0003F00803082B1BD17B681B686FF00802F7
:1021FC001A617B6804221A777B681B68DB6903F021
:10220C000303002B03D0786800F060F905E07868D0
:10221C0000F053F9786800F062F97B6800221A77B5
:10222C007B681B681B6903F01003102B22D17B68A1
:10223C001B68DB6803F01003102B1BD17B681B6839
:10224C006FF010021A617B6808221A777B681B6892
:10225C00DB6903F44073002B03D0786800F036F987
:10226C0005E0786800F029F9786800F038F97B68A7
:10227C0000221A777B681B681B6903F00103012B92
:10228C000ED17B681B68DB6803F00103012B07D1BF
:10229C007B681B686FF001021A617868FEF746F9DB
:1022AC007B681B681B6903F08003802B0ED17B6855
:1022BC001B68DB6803F08003802B07D17B681B68ED
:1022CC006FF080021A61786800F06BFA7B681B680B
:1022DC001B6903F04003402B0ED17B681B68DB6845
:1022EC0003F04003402B07D17B681B686FF0400262
:1022FC001A61786800F0FCF87B681B681B6903F0B6
:10230C002003202B0ED17B681B68DB6803F02003B5
:10231C00202B07D17B681B686FF020021A6178684C
:10232C0000F036FA00BF0837BD4680BD80B584B0DA
:10233C0000AF786039600023FB737B6893F83C3006
:10234C00012B01D10223B4E07B68012283F83C20ED
:10235C007B68022283F83D207B681B689B68BB600E
:10236C00BB6823F07703BB60BB6823F47F43BB607F
:10237C007B681B68BA689A603B681B68B3F5005FA2
:10238C003ED0B3F5005F00F28780B3F5805F00F0BC
:10239C008680B3F5805F7FD8702B1AD0702B7BD8DA
:1023AC00602B50D0602B77D8502B3CD0502B73D84F
:1023BC00402B58D0402B6FD8302B64D0302B6BD89F
:1023CC00202B60D0202B67D8002B5CD0102B5AD040
:1023DC0062E07B6818683B6899683B685A683B68A0
:1023EC00DB6800F05EF97B681B689B68BB60BB68B0
:1023FC0043F07703BB607B681B68BA689A604FE058
:10240C007B6818683B6899683B685A683B68DB686E
:10241C0000F047F97B681B689A687B681B6842F47C
:10242C0080429A603CE07B6818683B6859683B685E
:10243C00DB681A4600F0BEF87B681B685021184612
:10244C0000F015F92CE07B6818683B6859683B680C
:10245C00DB681A4600F0DCF87B681B6860211846C4
:10246C0000F005F91CE07B6818683B6859683B680C
:10247C00DB681A4600F09EF87B681B684021184602
:10248C0000F0F5F80CE07B681A683B681B6819468D
:10249C00104600F0ECF803E00123FB7300E000BFF2
:1024AC007B68012283F83D207B68002283F83C2066
:1024BC00FB7B18461037BD4680BD80B483B000AF9F
:1024CC00786000BF0C37BD4680BC704780B483B0C9
:1024DC0000AF786000BF0C37BD4680BC704780B43D
:1024EC0083B000AF786000BF0C37BD4680BC70472E
:1024FC0080B483B000AF786000BF0C37BD4680BCA1
:10250C007047000080B485B000AF786039607B689C
:10251C001B68FB607B68254A934207D07B68B3F14C
:10252C00804F03D07B68224A934208D1FB6823F08A
:10253C007003FB603B685B68FA681343FB607B6865
:10254C001A4A934207D07B68B3F1804F03D07B6863
:10255C00174A934208D1FB6823F44073FB603B6835
:10256C00DB68FA681343FB60FB6823F080023B686E
:10257C005B691343FB607B68FA681A603B689A6876
:10258C007B68DA623B681A687B689A627B68074AE8
:10259C00934203D13B681A697B681A637B680122FA
:1025AC005A6100BF1437BD4680BC7047002C0140F7
:1025BC000004004080B487B000AFF860B9607A6066
:1025CC00FB681B6A7B61FB681B6A23F00102FB68DA
:1025DC001A62FB689B693B613B6923F0F0033B612A
:1025EC007B681B013A6913433B617B6923F00A0347
:1025FC007B617A69BB6813437B61FB683A699A61BA
:10260C00FB687A691A6200BF1C37BD4680BC7047F4
:10261C0080B487B000AFF860B9607A60FB681B6A61
:10262C007B61FB681B6A23F01002FB681A62FB6873
:10263C009B693B613B6923F470433B617B681B03E3
:10264C003A6913433B617B6923F0A0037B61BB6850
:10265C001B017A6913437B61FB683A699A61FB68D9
:10266C007A691A6200BF1C37BD4680BC704780B4C3
:10267C0085B000AF786039607B689B68FB60FB6855
:10268C0023F07003FB603A68FB68134343F00703C5
:10269C00FB607B68FA689A6000BF1437BD4680BC4B
:1026AC00704780B487B000AFF860B9607A603B6067
:1026BC00FB689B687B617B6923F47F437B613B6890
:1026CC001A027B681A43BB6813437A6913437B6114
:1026DC00FB687A699A6000BF1C37BD4680BC7047A6
:1026EC0080B485B000AF786039607B6893F83C307B
:1026FC00012B01D1022341E07B68012283F83C20AD
:10270C007B68022283F83D207B681B685B68FB605A
:10271C007B681B689B68BB60FB6823F07003FB60E5
:10272C003B681B68FA681343FB607B681B68FA689C
:10273C005A607B681B68144A934209D07B681B68FB
:10274C00B3F1804F04D07B681B68104A93420CD1C4
:10275C00BB6823F08003BB603B685B68BA681343BB
:10276C00BB607B681B68BA689A607B68012283F83F
:10277C003D207B68002283F83C2000231846143748
:10278C00BD4680BC704700BF002C014000040040D7
:10279C0080B483B000AF786000BF0C37BD4680BCFE
:1027AC00704780B483B000AF786000BF0C37BD4673
:1027BC0080BC704770B500260C4D0D4C641BA410EA
:1027CC00A64209D100F022F800260A4D0A4C641BDF
:1027DC00A410A64205D170BD55F8043B98470136AC
:1027EC00EEE755F8043B98470136F2E764280008F9
:1027FC00642800086428000868280008034602447E
:10280C00934200D1704703F8011BF9E7F8B500BFFC
:10281C00F8BC08BC9E467047F8B500BFF8BC08BCB5
:04282C009E4670470D
:10283000010000000200000003000000040000008E
:102840000000000000000000010203040607080960
:1028500002030405060708090A0B0C0D0E0F1010E1
:042860000102000071
:042864003101000836
:042868000D01000856
:0C286C000024F400100000000100000037
:04000005080011AD31
:00000001FF
